{
  "_format": "hh-sol-artifact-1",
  "contractName": "BBBEthPoolV1",
  "sourceName": "contracts/BBBEthPoolV1.sol",
  "abi": [
    {
      "inputs": [],
      "name": "availableLiq",
      "outputs": [
        {
          "internalType": "uint256",
          "name": "",
          "type": "uint256"
        }
      ],
      "stateMutability": "view",
      "type": "function"
    },
    {
      "inputs": [
        {
          "internalType": "address",
          "name": "",
          "type": "address"
        }
      ],
      "name": "balances",
      "outputs": [
        {
          "internalType": "uint256",
          "name": "staked",
          "type": "uint256"
        }
      ],
      "stateMutability": "view",
      "type": "function"
    },
    {
      "inputs": [
        {
          "internalType": "uint256",
          "name": "amount",
          "type": "uint256"
        }
      ],
      "name": "distributeFee",
      "outputs": [],
      "stateMutability": "nonpayable",
      "type": "function"
    },
    {
      "inputs": [],
      "name": "getAvailableLiq",
      "outputs": [
        {
          "internalType": "uint256",
          "name": "",
          "type": "uint256"
        }
      ],
      "stateMutability": "view",
      "type": "function"
    },
    {
      "inputs": [
        {
          "internalType": "address",
          "name": "farmer",
          "type": "address"
        }
      ],
      "name": "getStakedBalance",
      "outputs": [
        {
          "internalType": "uint256",
          "name": "",
          "type": "uint256"
        }
      ],
      "stateMutability": "view",
      "type": "function"
    },
    {
      "inputs": [
        {
          "internalType": "address",
          "name": "farmer",
          "type": "address"
        }
      ],
      "name": "getTotalBalance",
      "outputs": [
        {
          "internalType": "uint256",
          "name": "",
          "type": "uint256"
        }
      ],
      "stateMutability": "view",
      "type": "function"
    },
    {
      "inputs": [
        {
          "internalType": "address",
          "name": "farmer",
          "type": "address"
        }
      ],
      "name": "getUnstakedBalance",
      "outputs": [
        {
          "internalType": "uint256",
          "name": "unstaked_",
          "type": "uint256"
        }
      ],
      "stateMutability": "view",
      "type": "function"
    },
    {
      "inputs": [
        {
          "internalType": "address",
          "name": "farmer",
          "type": "address"
        }
      ],
      "name": "getWithdrawableBalance",
      "outputs": [
        {
          "internalType": "uint256",
          "name": "withdrawable_",
          "type": "uint256"
        }
      ],
      "stateMutability": "view",
      "type": "function"
    },
    {
      "inputs": [],
      "name": "provideLiq",
      "outputs": [],
      "stateMutability": "payable",
      "type": "function"
    },
    {
      "inputs": [
        {
          "internalType": "uint256",
          "name": "amount",
          "type": "uint256"
        }
      ],
      "name": "unstake",
      "outputs": [],
      "stateMutability": "nonpayable",
      "type": "function"
    },
    {
      "inputs": [
        {
          "internalType": "uint256",
          "name": "amount",
          "type": "uint256"
        }
      ],
      "name": "withdrawBalance",
      "outputs": [],
      "stateMutability": "nonpayable",
      "type": "function"
    }
  ],
  "bytecode": "0x608060405234801561001057600080fd5b50610b3e806100206000396000f3fe60806040526004361061009c5760003560e01c8063685918d611610064578063685918d614610198578063843592d3146101a2578063cec4a6f3146101df578063d3d381931461021c578063da76d5cd14610259578063fb616dc9146102825761009c565b806305cc49dd146100a15780631516aa02146100ca57806327e235e3146100f55780632e17de78146101325780633a02a42d1461015b575b600080fd5b3480156100ad57600080fd5b506100c860048036038101906100c391906107e6565b6102ad565b005b3480156100d657600080fd5b506100df6102b0565b6040516100ec9190610822565b60405180910390f35b34801561010157600080fd5b5061011c6004803603810190610117919061089b565b6102ba565b6040516101299190610822565b60405180910390f35b34801561013e57600080fd5b50610159600480360381019061015491906107e6565b6102d8565b005b34801561016757600080fd5b50610182600480360381019061017d919061089b565b6103e6565b60405161018f9190610822565b60405180910390f35b6101a0610431565b005b3480156101ae57600080fd5b506101c960048036038101906101c4919061089b565b6104aa565b6040516101d69190610822565b60405180910390f35b3480156101eb57600080fd5b506102066004803603810190610201919061089b565b610560565b6040516102139190610822565b60405180910390f35b34801561022857600080fd5b50610243600480360381019061023e919061089b565b610617565b6040516102509190610822565b60405180910390f35b34801561026557600080fd5b50610280600480360381019061027b91906107e6565b6107a2565b005b34801561028e57600080fd5b506102976107a5565b6040516102a49190610822565b60405180910390f35b50565b6000600154905090565b60006020528060005260406000206000915090508060000154905081565b60008060003273ffffffffffffffffffffffffffffffffffffffff1673ffffffffffffffffffffffffffffffffffffffff16815260200190815260200160002090508181600001541015610361576040517f08c379a00000000000000000000000000000000000000000000000000000000081526004016103589061094b565b60405180910390fd5b81816000016000828254610375919061099a565b9250508190555080600101604051806040016040528084815260200162093a80426103a091906109ce565b8152509080600181540180825580915050600190039060005260206000209060020201600090919091909150600082015181600001556020820151816001015550505050565b60008060008373ffffffffffffffffffffffffffffffffffffffff1673ffffffffffffffffffffffffffffffffffffffff168152602001908152602001600020600001549050919050565b60008060003373ffffffffffffffffffffffffffffffffffffffff1673ffffffffffffffffffffffffffffffffffffffff16815260200190815260200160002090503481600001600082825461048791906109ce565b9250508190555034600160008282546104a091906109ce565b9250508190555050565b6000806000808473ffffffffffffffffffffffffffffffffffffffff1673ffffffffffffffffffffffffffffffffffffffff168152602001908152602001600020905060005b816001018054905081101561055957600082600101828154811061051757610516610a24565b5b90600052602060002090600202019050806001015442106105455780600001548461054291906109ce565b93505b50808061055190610a53565b9150506104f0565b5050919050565b6000806000808473ffffffffffffffffffffffffffffffffffffffff1673ffffffffffffffffffffffffffffffffffffffff168152602001908152602001600020905060005b81600101805490508110156106105760008260010182815481106105cd576105cc610a24565b5b9060005260206000209060020201905080600101544210156105fc578060000154846105f991906109ce565b93505b50808061060890610a53565b9150506105a6565b5050919050565b60003073ffffffffffffffffffffffffffffffffffffffff1663843592d3836040518263ffffffff1660e01b81526004016106529190610aab565b602060405180830381865afa15801561066f573d6000803e3d6000fd5b505050506040513d601f19601f820116820180604052508101906106939190610adb565b3073ffffffffffffffffffffffffffffffffffffffff1663cec4a6f3846040518263ffffffff1660e01b81526004016106cc9190610aab565b602060405180830381865afa1580156106e9573d6000803e3d6000fd5b505050506040513d601f19601f8201168201806040525081019061070d9190610adb565b3073ffffffffffffffffffffffffffffffffffffffff16633a02a42d856040518263ffffffff1660e01b81526004016107469190610aab565b602060405180830381865afa158015610763573d6000803e3d6000fd5b505050506040513d601f19601f820116820180604052508101906107879190610adb565b61079191906109ce565b61079b91906109ce565b9050919050565b50565b60015481565b600080fd5b6000819050919050565b6107c3816107b0565b81146107ce57600080fd5b50565b6000813590506107e0816107ba565b92915050565b6000602082840312156107fc576107fb6107ab565b5b600061080a848285016107d1565b91505092915050565b61081c816107b0565b82525050565b60006020820190506108376000830184610813565b92915050565b600073ffffffffffffffffffffffffffffffffffffffff82169050919050565b60006108688261083d565b9050919050565b6108788161085d565b811461088357600080fd5b50565b6000813590506108958161086f565b92915050565b6000602082840312156108b1576108b06107ab565b5b60006108bf84828501610886565b91505092915050565b600082825260208201905092915050565b7f416d6f756e74207265717565737465642065786365656473207374616b65642060008201527f62616c616e636500000000000000000000000000000000000000000000000000602082015250565b60006109356027836108c8565b9150610940826108d9565b604082019050919050565b6000602082019050818103600083015261096481610928565b9050919050565b7f4e487b7100000000000000000000000000000000000000000000000000000000600052601160045260246000fd5b60006109a5826107b0565b91506109b0836107b0565b9250828210156109c3576109c261096b565b5b828203905092915050565b60006109d9826107b0565b91506109e4836107b0565b9250827fffffffffffffffffffffffffffffffffffffffffffffffffffffffffffffffff03821115610a1957610a1861096b565b5b828201905092915050565b7f4e487b7100000000000000000000000000000000000000000000000000000000600052603260045260246000fd5b6000610a5e826107b0565b91507fffffffffffffffffffffffffffffffffffffffffffffffffffffffffffffffff821415610a9157610a9061096b565b5b600182019050919050565b610aa58161085d565b82525050565b6000602082019050610ac06000830184610a9c565b92915050565b600081519050610ad5816107ba565b92915050565b600060208284031215610af157610af06107ab565b5b6000610aff84828501610ac6565b9150509291505056fea264697066735822122082c3cb51fd57f6b84e462de40121a3f5c3d40098ff386d7f9a2c07dd0ddf26cf64736f6c634300080b0033",
  "linkReferences": {},
  "deployedLinkReferences": {}
}