{
  "_format": "hh-sol-artifact-1",
  "contractName": "BridgeBackBetterV1",
  "sourceName": "contracts/BridgeBackBetterV1.sol",
  "abi": [
    {
      "inputs": [
        {
          "internalType": "uint256",
          "name": "_fee",
          "type": "uint256"
        }
      ],
      "stateMutability": "nonpayable",
      "type": "constructor"
    },
    {
      "inputs": [
        {
          "internalType": "contract IBBBPoolV1",
          "name": "liqPool",
          "type": "address"
        }
      ],
      "name": "addLiqPool",
      "outputs": [],
      "stateMutability": "nonpayable",
      "type": "function"
    },
    {
      "inputs": [],
      "name": "fee",
      "outputs": [
        {
          "internalType": "uint256",
          "name": "",
          "type": "uint256"
        }
      ],
      "stateMutability": "view",
      "type": "function"
    },
    {
      "inputs": [
        {
          "internalType": "address",
          "name": "sender",
          "type": "address"
        },
        {
          "internalType": "uint256",
          "name": "exitNum",
          "type": "uint256"
        },
        {
          "internalType": "bytes",
          "name": "data",
          "type": "bytes"
        }
      ],
      "name": "onExitTransfer",
      "outputs": [
        {
          "internalType": "bool",
          "name": "",
          "type": "bool"
        }
      ],
      "stateMutability": "nonpayable",
      "type": "function"
    },
    {
      "inputs": [],
      "name": "owner",
      "outputs": [
        {
          "internalType": "address",
          "name": "",
          "type": "address"
        }
      ],
      "stateMutability": "view",
      "type": "function"
    },
    {
      "inputs": [
        {
          "internalType": "uint256",
          "name": "_fee",
          "type": "uint256"
        }
      ],
      "name": "setFee",
      "outputs": [],
      "stateMutability": "nonpayable",
      "type": "function"
    }
  ],
  "bytecode": "0x608060405234801561001057600080fd5b50604051610728380380610728833981810160405281019061003291906100ba565b336000806101000a81548173ffffffffffffffffffffffffffffffffffffffff021916908373ffffffffffffffffffffffffffffffffffffffff16021790555080600281905550506100e7565b600080fd5b6000819050919050565b61009781610084565b81146100a257600080fd5b50565b6000815190506100b48161008e565b92915050565b6000602082840312156100d0576100cf61007f565b5b60006100de848285016100a5565b91505092915050565b610632806100f66000396000f3fe608060405234801561001057600080fd5b50600436106100575760003560e01c8063592e20701461005c57806369fe0e2d1461008c5780638da5cb5b146100a8578063ddca3f43146100c6578063e2d8d847146100e4575b600080fd5b610076600480360381019061007191906103c3565b610100565b6040516100839190610452565b60405180910390f35b6100a660048036038101906100a1919061046d565b61010a565b005b6100b06101a2565b6040516100bd91906104a9565b60405180910390f35b6100ce6101c6565b6040516100db91906104d3565b60405180910390f35b6100fe60048036038101906100f9919061052c565b6101cc565b005b6000949350505050565b60008054906101000a900473ffffffffffffffffffffffffffffffffffffffff1673ffffffffffffffffffffffffffffffffffffffff163373ffffffffffffffffffffffffffffffffffffffff1614610198576040517f08c379a000000000000000000000000000000000000000000000000000000000815260040161018f906105dc565b60405180910390fd5b8060028190555050565b60008054906101000a900473ffffffffffffffffffffffffffffffffffffffff1681565b60025481565b60008054906101000a900473ffffffffffffffffffffffffffffffffffffffff1673ffffffffffffffffffffffffffffffffffffffff163373ffffffffffffffffffffffffffffffffffffffff161461025a576040517f08c379a0000000000000000000000000000000000000000000000000000000008152600401610251906105dc565b60405180910390fd5b6001819080600181540180825580915050600190039060005260206000200160009091909190916101000a81548173ffffffffffffffffffffffffffffffffffffffff021916908373ffffffffffffffffffffffffffffffffffffffff16021790555050565b600080fd5b600080fd5b600073ffffffffffffffffffffffffffffffffffffffff82169050919050565b60006102f5826102ca565b9050919050565b610305816102ea565b811461031057600080fd5b50565b600081359050610322816102fc565b92915050565b6000819050919050565b61033b81610328565b811461034657600080fd5b50565b60008135905061035881610332565b92915050565b600080fd5b600080fd5b600080fd5b60008083601f8401126103835761038261035e565b5b8235905067ffffffffffffffff8111156103a05761039f610363565b5b6020830191508360018202830111156103bc576103bb610368565b5b9250929050565b600080600080606085870312156103dd576103dc6102c0565b5b60006103eb87828801610313565b94505060206103fc87828801610349565b935050604085013567ffffffffffffffff81111561041d5761041c6102c5565b5b6104298782880161036d565b925092505092959194509250565b60008115159050919050565b61044c81610437565b82525050565b60006020820190506104676000830184610443565b92915050565b600060208284031215610483576104826102c0565b5b600061049184828501610349565b91505092915050565b6104a3816102ea565b82525050565b60006020820190506104be600083018461049a565b92915050565b6104cd81610328565b82525050565b60006020820190506104e860008301846104c4565b92915050565b60006104f9826102ea565b9050919050565b610509816104ee565b811461051457600080fd5b50565b60008135905061052681610500565b92915050565b600060208284031215610542576105416102c0565b5b600061055084828501610517565b91505092915050565b600082825260208201905092915050565b7f4f6e6c792074686520636f6e7472616374206f776e65722063616e20646f207460008201527f6869730000000000000000000000000000000000000000000000000000000000602082015250565b60006105c6602383610559565b91506105d18261056a565b604082019050919050565b600060208201905081810360008301526105f5816105b9565b905091905056fea264697066735822122037beee7c87e2fb4de050489881e6d6047800457a5d52507d34dda23f6bee810a64736f6c634300080b0033",
  "linkReferences": {},
  "deployedLinkReferences": {}
}